:100000000C944F010C94AD200C94DE200C940F2125
:100010000C9440210C9471210C94A2210C94D321B6
:100020000C9404220C947C010C947C010C947C01B3
:100030000C947C010C947C010C947C010C947C014C
:100040000C947C010C947C010C947C010C947C013C
:100050000C947C010C947C010C947C010C94472240
:100060000C947C010C94741A0C94BC1B0C947C01B1
:100070000C947C010C947C010C947C010C947C010C
:100080000C947C010C947C010C947C010C947C01FC
:100090000C94B41A0C94FB1B0C947C010C947C0102
:1000A0000C947C010C947C010C947C010C947C01DC
:1000B0000C947C010C947C010C947C010C947C01CC
:1000C0000C947C010C947C010C947C010C94F41A2B
:1000D0000C943A1C0C947C010C94341B0C94791CE9
:1000E0000C947C01D10BD60BDD0B180C470C130CB8
:1000F000F70CE40B0C0C500C570C5D0C7E0C9F0C99
:10010000D00CD60CDC0CE20CE80CEF0C650C6D0C82
:10011000750C9A10E010E9110612B212E7120013E2
:100120001513FA103D11541171119211AD11CB112B
:10013000031220123A123D1257125A1274127712F9
:100140009112CC1279139313A313251435160117AA
:10015000011701174E165B1674168D16A616B816E3
:10016000DC16B8133E1495145114FD14661465156D
:100170008214CD15F81600002100240027002A0063
:100180002D003000330001010000040107010A01C5
:1001900000002200250028002B002E003100340032
:1001A00002010000050108010B01000020002300EE
:1001B000260029002C002F0032000001000003015E
:1001C00006010901050505050705080808080202DA
:1001D00002020A0A080804040404010101010101E1
:1001E00001010303030303030303040707070C0CC4
:1001F0000C0C0C0C0C0C020202020606060606068B
:1002000006060B0B0B0B0B0B0B0B0102102020082F
:100210000810204010204080020102010804020161
:1002200001020408102040808040201008040201D0
:100230008004020180402010080402010804020129
:1002400001020408102040800102040810204080B0
:100250000000090A02080B0C0D0706030401000048
:10026000000000000000000000000000000000008E
:1002700000000000000000000000000011100F004E
:10028000000000000000000000000000000000006E
:100290000000000000008F04610AE91D5A0A1124C1
:1002A0001FBECFEFD1E2DEBFCDBF00E00CBF15E037
:1002B000A0E0B2E0E6E7F9E400E00BBF02C007907F
:1002C0000D92A431B107D9F71BBE18E0A4E1B5E047
:1002D00001C01D92A734B107E1F712E0CCE9D2E0EA
:1002E00004C02297FE010E94AA24C639D107C9F78B
:1002F0000E9435220C94AE240C940000CF93DF931F
:10030000BC018230910510F462E070E0A0914508D4
:10031000B0914608ED01E0E0F0E040E050E021C09F
:10032000888199818617970769F48A819B81309724
:1003300019F09383828304C0909346088093450804
:10034000FE0134C06817790738F44115510519F0DA
:100350008417950708F4AC01FE018A819B819C01FA
:10036000E9012097E9F641155105A9F1CA01861B5B
:10037000970B049708F4BA01E0E0F0E02AC08D91F1
:100380009C91119784179507F9F46417750781F408
:1003900012968D919C911397309719F093838283D5
:1003A00004C09093460880934508FD0132964CC0E6
:1003B000CA01861B970BFD01E80FF91F619371932A
:1003C00002978D939C9340C0FD01828193819C0193
:1003D000D9011097A1F68091430890914408892B88
:1003E00041F480918D0490918E0490934408809301
:1003F000430840918F04509190044115510541F4F8
:100400004DB75EB780918B0490918C04481B590BBB
:100410002091430830914408CA01821B930B861730
:10042000970780F0AB014E5F5F4F8417950750F040
:10043000420F531F5093440840934308F9016193BE
:10044000719302C0E0E0F0E0CF01DF91CF91089519
:10045000CF93DF93009709F450C0EC0122971B82E1
:100460001A82A0914508B0914608109709F140E022
:1004700050E0AC17BD0708F1BB83AA83FE012191B0
:100480003191E20FF31FAE17BF0779F48D919C9164
:100490001197280F391F2E5F3F4F398328831296FB
:1004A0008D919C9113979B838A834115510571F41B
:1004B000D0934608C093450820C012968D919C9118
:1004C0001397AD01009711F0DC01D3CFFA01D3836C
:1004D000C28321913191E20FF31FCE17DF0769F438
:1004E00088819981280F391F2E5F3F4FFA01318390
:1004F00020838A819B8193838283DF91CF910895AA
:10050000FB01DC014150504048F001900D92002069
:10051000C9F701C01D9241505040E0F70895CF93B4
:10052000DF93EC018A850E9423246C850E94DF03FF
:100530009C018D8D8823C1F02115310579F4CE0100
:1005400043960E94E1172D853E8540E050E06217FA
:1005500073078407950730F01D8E09C080E02130B5
:10056000310569F481E00BC02130310511F080E0E4
:1005700006C0CE0143960E943B1881E08D8FDF912B
:10058000CF910895CF92DF92EF92FF920F931F9336
:10059000CF93DF93EC018B010E948F02882311F42B
:1005A0001E8E3AC08E8D882349F4CE0147960E9454
:1005B0003B181C8E1B8E81E08E8F2EC0012B59F5AF
:1005C00089899A89892B39F1CE0147960E94E117D2
:1005D0007B018C018F859889A0E0B0E0E816F906D0
:1005E0000A071B07C0F0CB8CDC8CE81AF90A0A0B4F
:1005F0001B0B29893A8940E050E0C801B7010E94ED
:100600008624C216D30638F40894C11CD11CDC8E93
:10061000CB8E81E001C080E0DF91CF911F910F91DF
:10062000FF90EF90DF90CF9008957F928F929F92EE
:10063000AF92BF92CF92DF92EF92FF920F931F93F0
:10064000CF93DF93EC015B014A01722E43960E9427
:10065000DB17CE0147960E94DB17CE01B5014BE0B8
:1006600050E00E9480029B868A867C861E870D87CA
:10067000E016F10638F4000F111F0F5F1F4F188BA3
:100680000F8702C0F88AEF86C114D10429F481E0F3
:1006900090E09A8B898B02C0DA8AC98A1D8E1E8EE1
:1006A0001C8E1B8EDF91CF911F910F91FF90EF90C9
:1006B000DF90CF90BF90AF909F908F907F900895E4
:1006C000FC01108211827383628308951F93CF937C
:1006D000DF93EC0180914905882309F468C0888183
:1006E000882309F064C011E018830E94530580E656
:1006F00095E00E943B1881E161E00E94F023609147
:1007000049058A819B810E942B0F809170059091F1
:10071000710501969093710580937005109365059E
:1007200028C080914905882381F481E160E00E941E
:10073000F0231882609149058A819B810E942B0FCA
:1007400084E595E00E943B1814C08091490511C0D2
:1007500080914905882369F480916505882349F0D3
:100760008A819B8161E00E946B0E84E595E00E9486
:10077000101880914B058823F1F060914A058A8119
:100780009B810E94740E10924B0580914A0588232C
:1007900091F0809172059091730501969093730585
:1007A0008093720588E595E00E943B1804C088811B
:1007B000882371F2B6CFDF91CF911F910895662300
:1007C00039F420E030E0892B21F421E030E001C051
:1007D0009C01C901089585E10E94232420E0892B12
:1007E00009F421E02093490580914905882321F4EB
:1007F00081E160E00E94F023089584E10E942324B7
:1008000020E0892B09F421E080914A05281749F15D
:1008100020934A0580914A05882369F082E360E0CD
:100820000E94F02388E595E00E943B188CE595E056
:100830000E943B1811C082E361E00E94F0231092F5
:10084000640588E595E00E9410189B01AC018FE6D5
:1008500095E0B9010E940A0A81E0809365058093C2
:100860004B05089583E262E00E943D2385E262E049
:100870000E943D2387E262E00E943D2389E262E01C
:100880000E943D2381E262E00E943D2385E162E017
:100890000E943D2384E162E00E943D2381E161E00A
:1008A0000E943D2380E361E00E943D238EE261E0EF
:1008B0000E943D2382E361E00E943D2381E160E0EC
:1008C0000E94F02380E361E00E94F0238EE261E069
:1008D0000E94F02382E361E00E94F02382E06BEE4D
:1008E00073E041E050E00E94312083E06DEF73E05F
:1008F00041E050E00E94312085E10E94232420E065
:10090000892B09F421E02093490584E10E942324E6
:1009100020E0892B09F421E020934A05089584E121
:1009200095E00E94DB170895DF93CF9300D000D0AD
:10093000CDB7DEB789E0898384E195E00E94E117B5
:100940007A836B8380E88C8380914905882311F03A
:1009500080EC8C8380914A05882319F08C81806219
:100960008C8380916405882319F08C8180618C834D
:1009700080916605882319F08C8188608C83809132
:100980006705882319F08C8184608C8320914E0543
:1009900090914F0593708C81892B8C832D838EE0F1
:1009A0000E9409238F5F8E8384EC97E0BE016F5F06
:1009B0007F4F46E050E00E941F1F26960FB6F89426
:1009C000DEBF0FBECDBFCF91DF910895DF93CF93F0
:1009D0000F920F92CDB7DEB781E0898380914505F4
:1009E0008A8384EC97E0BE016F5F7F4F42E050E066
:1009F0000E941F1F0F900F90CF91DF910895DF93FA
:100A0000CF930F920F92CDB7DEB784E089838091A8
:100A100047058A8384EC97E0BE016F5F7F4F42E019
:100A200050E00E941F1F0F900F90CF91DF9108950B
:100A3000DF93CF9300D0CDB7DEB79C018230910514
:100A400029F460914C0570914D0504C060914E05EC
:100A500070914F058091470590914805029729F4C0
:100A6000CB0167E070E00E94722429837A836B8354
:100A700084EC97E0BE016F5F7F4F43E050E00E943F
:100A80001F1F0F900F900F90CF91DF910895882333
:100A900021F084EC97E068E003C084EC97E067E025
:100AA0000E94A91D089584E195E00E943B1884EC02
:100AB00097E066E00E94A91D0895FC01108281E084
:100AC000818388E2828388E592E09387828714821B
:100AD0001382168215821782108611861486158657
:100AE00016861786118A108A0895FC01DB01808121
:100AF000882331F18C91828311968D919C9112976C
:100B00009483838313968D919C9114979683858308
:100B100015968C911597878316968C9116978087DA
:100B200017968C911797818718968D919C9119979C
:100B3000938782871A968D919C911B97918B808BBE
:100B40000895FC01818108950F931F93CF93DF9344
:100B50008C01FC018081882309F4AAC02181C22F65
:100B6000D0E074E0CC0FDD1F7A95E1F72196848503
:100B70009585A685B7850196A11DB11D84879587AA
:100B8000A687B78788519347A140B04018F0205FEF
:100B9000F8012183249681E895E0BE0140E00E949F
:100BA000671A219681E895E0BE01F80143810E9411
:100BB000671A2196F801468181E895E0BE010E94FE
:100BC000671A219681E895E0BE01F80145810E94EF
:100BD000671A219681E895E0BE01F80147810E94DD
:100BE000671A219681E895E0BE01F80140850E94D0
:100BF000671A219681E895E0BE01F80141850E94BF
:100C0000671A279781E895E0BE01F80142810E94AA
:100C1000671A2896F8012485358546855785252F3E
:100C200033274427552781E895E0BE01422F0E94D3
:100C3000671A2196F80124853585468557859A01DE
:100C40004427552781E895E0BE01422F0E94671A8C
:100C50002196F8012485358546855785232F342F25
:100C6000452F552781E895E0BE01422F0E94671A63
:100C7000219681E895E0BE01F80144850E94671A3B
:100C80002D9781E895E0BE01F80142850E94671A20
:100C90002196F801438581E895E0BE010E94671A1C
:100CA0002D9681E895E0BE01F80140890E94671AFF
:100CB000DF91CF911F910F910895FC01148213824F
:100CC00016821582178210860E94A4050895CF937C
:100CD000DF93EC01462F663008F040E08981481729
:100CE00071F049831C861D861E861F8681E895E06B
:100CF00060E070E00E94671ACE010E94A40589811D
:100D0000DF91CF910895AF92BF92CF92DF92EF9291
:100D1000FF920F931F937C01462FFC01618388E2B1
:100D2000828388E592E093878287148213821682F9
:100D300015821782108611861486158616861786E8
:100D4000118A108A062F10E0F4E0000F111FFA95A7
:100D5000E1F758010894A11CB11CE1E8CE2EE5E0B2
:100D6000DE2EC60160E070E00E94671A0C5F1F4F24
:100D7000C601B801F70142810E94671AB5016F5F91
:100D80007F4FC601F70142850E94671A015010404B
:100D9000C601B80140E00E94671A035F1F4FC601F9
:100DA000B801F70140890E94671AC601B5014AE2FD
:100DB0000E94671A0B501040C601B80140E00E9423
:100DC000671A0F5F1F4FC601B80140E00E94671A03
:100DD0000F5F1F4FC601B80140E00E94671A0F5F06
:100DE0001F4FC601B80140E00E94671A0F5F1F4FF6
:100DF000C601B80140E00E94671A0F5F1F4FC6018D
:100E0000B80140E00E94671A0F5F1F4FC601B8018A
:100E100040E00E94671A0F5F1F4FC601B80140E013
:100E20000E94671A0F5F1F4FC601B80140E00E9481
:100E3000671A0F5F1F4FC601B80140E00E94671A92
:100E40000F5F1F4FC601B80140E00E94671A1F9153
:100E50000F91FF90EF90DF90CF90BF90AF900895EB
:100E60008F929F92AF92BF92CF92DF92EF92FF92BA
:100E70000F931F93CF93DF934C0181E895E060E0DF
:100E800070E00E94601AF4018183C82FD0E094E0E2
:100E9000CC0FDD1F9A95E1F78E010F5F1F4F81E8A0
:100EA00095E0B8010E94601A8A3229F0C40160E01E
:100EB0000E948306C4C00F5F1F4F81E895E0B80110
:100EC0000E94601A082F10E0F4011387028723960E
:100ED00081E895E0BE010E94601A382F20E0202BA7
:100EE000312BF40133872287219681E895E0BE01FA
:100EF0000E94601AF4018283219681E895E0BE0188
:100F00000E94601A182F219681E895E0BE010E9488
:100F1000601A312F20E090E0282B392BF401348324
:100F20002383219681E895E0BE010E94601A182F64
:100F3000219681E895E0BE010E94601A312F20E0E1
:100F400090E0282B392BF40136832583219681E804
:100F500095E0BE010E94601AF4018783219681E822
:100F600095E0BE010E94601AF4018087219681E815
:100F700095E0BE010E94601AF401818781E895E046
:100F80006FE070E00E94601AF401808B118A148671
:100F9000158616861786219681E895E0BE010E9487
:100FA000601AE82EFF2400E010E01E2D0027FF2429
:100FB000EE24F401E486F58606871787219681E8FA
:100FC00095E0BE010E94601AA82EBB24CC24DD242B
:100FD0006501BB24AA24AE28BF28C02AD12AF40167
:100FE000A486B586C686D786219681E895E0BE019F
:100FF0000E94601AE82EFF2400E010E0102F0F2D51
:10100000FE2CEE24EA28FB280C291D29F401E48695
:10101000F58606871787219681E895E0BE010E9434
:10102000601A90E0A0E0B0E0E82AF92A0A2B1B2B16
:10103000F401E486F5860687178781E08083DF91D7
:10104000CF911F910F91FF90EF90DF90CF90BF90C5
:10105000AF909F908F9008950F931F93CF93DF933E
:10106000EC018B018881882319F4CE010E9430079E
:101070008A81F80180838B819C81928381838D8119
:101080009E81948383838F818583888586838985E8
:1010900087838A859B8591878087888999899387AB
:1010A00082878C859D85AE85BF8584879587A68739
:1010B000B7878981808BDF91CF911F910F91089520
:1010C0000F931F938C0180E361E00E94F0238EE276
:1010D00061E00E94F0231092670510926605C80136
:1010E00062E070E00E941F0F1F910F9108950F930F
:1010F0001F938C0180E361E00E94F0238EE261E0A7
:101100000E94F023109267051092660581E080939B
:10111000680510926405C80164E070E00E941F0F2A
:101120001F910F9108950F931F938C0180E361E04D
:101130000E94F0238EE260E00E94F02381E0809321
:10114000670510926605C80161E070E00E941F0FFC
:101150001F910F9108950F931F938C0180E360E01E
:101160000E94F0238EE261E00E94F0231092670556
:1011700081E080936605C80160E070E00E941F0F67
:101180001F910F910895CF93DF93EC0180914B0550
:101190008823D9F060914A05CE010E94740E109206
:1011A0004B0580914A05882381F0809172059091CA
:1011B00073050196909373058093720581E0809387
:1011C000650588E595E00E943B18809149058823D4
:1011D000A9F481E160E00E94F023CE010E94600842
:1011E00060914905CE010E942B0F10924405109288
:1011F000430584E595E00E943B1804C080914A05B0
:10120000882329F410926405109268059EC080918D
:101210006405882309F580916805882379F0209179
:10122000690530916A0580914E0590914F05281708
:10123000390708F48AC0109268050AC08CE595E069
:101240000E94E117615B74408040904008F47DC0CB
:1012500081E08093640579C080916605882371F0F0
:1012600080914C0590914D05019720914E0530914C
:101270004F052817390708F463C010C0809167052F
:10128000882381F120914E0530914F0580914C05C6
:1012900090914D0501968217930720F0CE010E9490
:1012A00060084EC08091690590916A050196821789
:1012B0009307A0F08BE695E00E94E1176830710576
:1012C00081059105E8F120914E0530914F058091FF
:1012D000690590916A052817390790F1CE010E949F
:1012E00077082EC040914E0550914F0520914C0536
:1012F00030914D05C90104978417950720F0CE0160
:101300000E94AB081DC02C5F3F4F42175307C0F02F
:10131000809168058823A1F4CE010E949308109261
:10132000660581E08093670580914E0590914F0599
:1013300090936A05809369058BE695E00E943B18BF
:10134000CE010E94290E9C0102C020E030E0C901BC
:10135000DF91CF910895CF93DF93EC0180916505E4
:10136000882381F0CE0161E00E946B0E84E595E058
:101370000E9410186E3171058105910518F028E062
:1013800030E044C080914905882341F180E695E032
:101390000E943B1881E161E00E94F023809170057A
:1013A000909171050196909371058093700581E08D
:1013B0008093650581E090E0909344058093430518
:1013C000109264051092660510926705CE0160E0E8
:1013D00070E00E947B1020E030E018C080914B0547
:1013E000882381F060914A05CE010E94740E80919D
:1013F0004A05882329F4CE0163E070E00E941F0FA4
:1014000010924B05CE010E9453139C01C901DF913C
:10141000CF910895FC019B018781280F311DC901DF
:101420006CE370E00E9472248783C9016CE370E072
:101430000E9472249B018681280F311DC9016CE333
:1014400070E00E9472248683C9016CE370E00E9400
:1014500072248581860F858308958130910501F579
:101460006F5F7F4F31F588E195E00E940A1781E3B5
:1014700095E00E945D0584E595E00E94DB1788E514
:1014800095E00E94DB178CE595E00E94DB1780E673
:1014900095E00E94DB178BE695E00E94DB1708952C
:1014A000892B39F46F5F7F4F21F488E195E00E942A
:1014B000100E089580E090E06FEF7FEF0E942D0AFC
:1014C000089581E090E06FEF7FEF0E942D0A08956C
:1014D000882319F081E161E002C081E160E00E94AF
:1014E000F023089586309105D9F1873091053CF4B9
:1014F0008130910559F0029709F078C011C087300A
:101500009105C9F1089709F071C04CC080914C0554
:1015100090914D0523E0873E9207C8F4019608C0DC
:1015200080914C0590914D058A31910580F001978D
:1015300090934D0580934C059093780580937705A3
:1015400084E595E00E943B1881E0809365056091F9
:101550004C0570914D0588E195E00E942E1008958C
:1015600081E395E00E945D0681E395E06FE675E01A
:101570000E942C08089581E395E00E94A105682F40
:101580006F5F81E395E00E94670680937F0581E3AA
:1015900095E06FE675E00E94750581E395E00E9495
:1015A000A405089581E395E06FE675E00E94750556
:1015B00081E395E00E94A4051092650588E195E01D
:1015C00060E00E946B0E80917B0590917C05A0915C
:1015D0007D05B0917E050196A11DB11D80937B050F
:1015E00090937C05A0937D05B0937E05089580912E
:1015F0004905882309F044C080914A05882309F0F1
:101600003FC08091450590914605009759F481E0CF
:1016100090E0909346058093450588E195E066E06B
:1016200070E01FC08130910559F482E090E0909302
:1016300046058093450588E195E067E070E011C0BC
:101640008230910589F483E090E090934605809381
:101650004505109244051092430588E195E060E04D
:1016600070E00E947B100895039751F41092460594
:101670001092450588E195E065E070E00E947B10DE
:10168000089588E00E940923181619062CF010927C
:101690004F0510924E0504C090934F0580934E0560
:1016A00080914905882331F080918005882311F0CD
:1016B0000E94940408952F923F924F925F926F92EE
:1016C0007F928F929F92AF92BF92CF92DF92EF92D2
:1016D000FF920F931F93CF93DF9384E090E00E94DB
:1016E0004422782E092F68E175E00E946003409043
:1016F00043055090440583E090E090934605809325
:10170000450588E195E060E070E00E947B100E9452
:101710008F224B015C01CC24DD24EE24FF2451E018
:10172000252E312C662463940E948F2286169706FC
:10173000A806B906C9F30E948F224B015C010E94E2
:10174000410B0894E11CF11C25E6E216F10440F07F
:101750000E94940485E090E00E941805EE24FF2486
:1017600088E195E00E94110E882311F00E94F70A8B
:1017700084EC97E00E943F1D181619060CF037C143
:1017800084EC97E00E94501DFC018731910508F020
:101790002EC1EE58FF4FEE0FFF1F0590F491E02D84
:1017A000199484EC97E00E94701D21C184EC97E0AD
:1017B0000E94701D0E94F70A04C084EC97E00E940A
:1017C000701D0E94E60413C184EC97E00E94701D16
:1017D0008091470590914805019739F482E090E0A7
:1017E000909348058093470504C0309248052092A5
:1017F00047050E94FF0482E090E00E94180585E002
:1018000090E00E94180560914E0570914F0588E1A7
:1018100095E00E942510BBC084EC97E00E94701DEB
:101820000E94FF04E4C084EC97E00E943F1DDFC0EB
:1018300084EC97E00E943F1D03970CF4D8C084EC21
:1018400097E00E94701D84EC97E00E94701D182F95
:1018500084EC97E00E94701DD12FC0E0282F30E06B
:101860002C2B3D2B8091470590914805029751F410
:10187000C90143E0880F991F4A95E1F7AC01421B6B
:10188000530B9A0130934D0520934C0504C084EC12
:1018900097E00E94701D82E090E00E941805A7C0AA
:1018A00084EC97E00E94701D85E090E0F6CF84EC18
:1018B00097E00E94701D81E005C084EC97E00E94D3
:1018C000701D80E00E94680A92C084EC97E00E943C
:1018D000701D6092800581E00EC084EC97E00E944C
:1018E000701D1092800580E006C084EC97E00E9495
:1018F000701D809180050E94470579C084EC97E0B7
:101900000E94701D80914705909148058230910595
:1019100051F480914C0590914D0554E08C3E950713
:1019200090F507962CC0019771F580914C05909128
:101930004D0523E08C3F920730F5019620C084ECE2
:1019400097E00E94701D8091470590914805823074
:10195000910551F480914C0590914D0541E08536FB
:10196000940788F007970BC0019769F480914C05A4
:1019700090914D0551E08F35950728F00197909390
:101980004D0580934C0582E090E00E94180560911F
:101990004C0570914D0588E195E00E942E1027C0FE
:1019A00084EC97E00E94701D82E317C084EC97E0FE
:1019B0000E94701D82E318C084EC97E00E94701DA5
:1019C00080E30BC084EC97E00E94701D80E30CC0A4
:1019D00084EC97E00E94701D8EE260E006C084EC0B
:1019E00097E00E94701D8EE261E00E94F0238091DA
:1019F000450590914605009709F496CE81309105F2
:101A000029F4872D902F0E9466038ECE8230910597
:101A1000B9F5872D902F0E94660388E195E00E941A
:101A2000190E059709F080CE80914905882309F4A5
:101A30007BCE80914A05882309F476CE80914E05AD
:101A400090914F05892B09F46FCE88E195E060E015
:101A500070E00E947B1080914E0590914F0590930D
:101A60004D0580934C0583E090E09093460580936C
:101A7000450530924405209243056092640554CE9A
:101A8000039709F051CE60914305709144054616C5
:101A90005706C9F088E195E00E94B60E8091430593
:101AA00090914405009729F0019749F40E9453054D
:101AB00006C088E195E063E070E00E941F0F40904F
:101AC000430550904405809143059091440500974B
:101AD00029F488E195E00E94AB0906C0019729F43A
:101AE00088E195E00E94C3086C01C6010E94720A59
:101AF0001BCEFF920F931F93DF93CF9300D00F92D3
:101B0000CDB7DEB78E010F5F1F4FC8010E94DB17F4
:101B100082EA97E040E052EC61E070E00E94B81C7D
:101B200082EA97E060E072E00E941E2084EC97E079
:101B300040E052EC61E070E00E94B81C88E195E062
:101B40000E94830FC8010E943B1888E195E064E180
:101B500072E00E944F0F1092490510924A050E94B0
:101B6000320481E395E00E94300781E395E06FE65F
:101B700075E00E942C0810924605109245051092BF
:101B800044051092430580917705909178059093D4
:101B90004D0580934C051092680581E090E090938C
:101BA00048058093470510925105109250051092F8
:101BB000530510925205F02E012F8F2D902F0E9469
:101BC000E117605D774080409040B8F388E195E090
:101BD0000E94890F60914C0570914D0588E195E058
:101BE0000E942E101092640588E195E063E070E099
:101BF0000E941F0F6091490588E195E00E942B0F1C
:101C000060914A0588E195E00E94740E0F900F9054
:101C10000F900F90CF91DF911F910F91FF9008953A
:101C20000895FC018485958561E070E00E94C20200
:101C30000895FC018481958161E070E00E94C202F8
:101C4000882319F420E030E002C025E030E0C9012B
:101C50000895FF920F931F938C01FC018285938559
:101C600060E070E00E94C202F82EF8018085918544
:101C700060E070E00E94C202882319F021E030E0A9
:101C800007C0FF2019F420E030E002C022E030E07D
:101C9000C9011F910F91FF900895CF93DF93EC013D
:101CA0008A819B81892BA1F4888199816CE040E035
:101CB0000E943A19888D28813981882321F0C90131
:101CC00068E172E003C0C9016AE172E00E941B2072
:101CD000DF91CF910895FC01808D861721F0608FF0
:101CE000CF010E944D0E0895CF93DF93EC016B8BD3
:101CF0008A819B81009729F08630910511F0079722
:101D0000A1F48881998162E041E00E943A198B89AF
:101D100028813981882321F0C9016CE172E003C078
:101D2000C9016EE172E00E941B20DF91CF910895FE
:101D3000CF93DF93EC01888199816DE040E00E94B0
:101D40003A198E899F89009719F0019761F405C0AF
:101D50008881998160E272E004C08881998164E29F
:101D600072E00E941B20DF91CF910895FC018689CB
:101D700097896817790729F0778B668BCF010E94C6
:101D8000980E0895CF93DF93EC018C899D89823062
:101D9000910581F18330910534F4009759F0019752
:101DA00009F04AC016C083309105D1F1049709F0BB
:101DB00043C02BC0888199816FE041E00E943A19AD
:101DC000E881F981A081B1812D913C91CF0164E03E
:101DD0000EC0888199816FE041E00E943A19E88144
:101DE000F981A081B1812D913C91CF0165E0F9018C
:101DF000199522C0888199816EE041E00E943A19CC
:101E00008881998168E272E015C0888199816EE0CD
:101E100041E00E943A19888199816BE272E00AC020
:101E2000888199816EE041E00E943A198881998108
:101E30006EE272E00E941B20DF91CF910895FC01B9
:101E4000848995896817790729F0758B648BCF0190
:101E50000E94C20E0895CF93DF93EC016A8B8A81B2
:101E60009B81009729F08630910511F00797A1F426
:101E70008881998162E040E00E943A198A8928812C
:101E80003981882321F0C9016CE172E003C0C901E6
:101E90006EE172E00E941B20DF91CF910895EF92D6
:101EA000FF920F931F938C017B01FC018081918134
:101EB00060E040E00E943A19F8018081918161E37D
:101EC00072E00E941B20F8018081918160E041E076
:101ED0000E943A19F801808191816EE372E00E94BC
:101EE0001B20F801808191816DE041E00E943A1948
:101EF000F80180819181B7010E941B201F910F91F1
:101F0000FF90EF900895FC01808191810E946919F2
:101F100008950F931F938C01FC01808191810E9491
:101F20006919F8018081918160E040E00E943A19CE
:101F3000F801808191816CE472E00E941B20F8011D
:101F40008081918160E041E00E943A19F80180812E
:101F500091816FE472E00E941B20F80180819181E1
:101F600064E040E00E943A19F8018081918162E5C5
:101F700072E00E941B20F8018081918164E041E0C1
:101F80000E943A19F8018081918167E572E00E9410
:101F90001B201F910F9108950F931F93CF93DF93F1
:101FA0008C01EB01FC01808991896817790709F49C
:101FB00047C0718B608B82819381009729F08630B6
:101FC000910511F00797E1F5F8018081918168E0B2
:101FD00041E00E943A19F80180899189885E934016
:101FE00040F0F801808191816CE572E00E941B2035
:101FF00027C08091470590914805029731F4CE01A2
:1020000067E070E00E947224EB01CA30D10530F421
:10201000F8018081918160E672E008C0C436D10584
:1020200038F4F801808191816AE172E00E941B20FE
:10203000F80180819181BE014AE050E00E94F81FC2
:10204000DF91CF911F910F910895FC018FEF9FEFCA
:10205000918B808BCF010E94CC0F08950F931F931B
:10206000CF93DF938C01EB01FC018081918168E0CB
:1020700040E00E943A19F8018081918163E672E0A4
:102080000E941B20F8018081918168E040E00E945D
:102090003A19F4E0C030DF0740F0F8018081918107
:1020A0006CE572E00E941B2021C080914705909151
:1020B0004805029731F4CE0167E070E00E94722477
:1020C000EB01C436D10538F4F8018081918169E0D3
:1020D00040E00E943A19F80180819181BE014AE0F6
:1020E00050E00E94F81FF801D787C687DF91CF9193
:1020F0001F910F910895CF93DF93EC017B836A8347
:10210000888199810E9469198881998160E040E005
:102110000E943A19EA81FB81E931F10508F0C0C259
:10212000E757FF4F88819981EE0FFF1F0590F491CB
:10213000E02D19946CE472E00E941B208881998143
:1021400060E041E00E943A19888199816FE472E071
:102150000E941B208881998164E040E00E943A1926
:102160008881998162E572E00E941B2088819981B3
:1021700064E041E00E943A198881998167E572E044
:102180000E941B206E857F85CE010E942E106889DB
:102190007989CE010E94CC0F60914905CE010E9441
:1021A0002B0F60914A05CE010E94740ECE010E9451
:1021B000C20ECE010E94980ECE010E944D0E70C23A
:1021C00067E672E00E941B208881998160E041E00F
:1021D0000E943A19A881B981ED91FC911197019063
:1021E000F081E02DCD0160E019956091930470912C
:1021F000940401C267E772E00E941B2088819981E4
:1022000060E041E00E943A198881998164E872E0B7
:102210000E941B2060917405888199814AE050E0FA
:102220000E940920888199816DE872E00E941B203C
:10223000809175058A3030F4888199816EE172E071
:102240000E941B2060917505888199814AE050E0C9
:102250000E940920888199816DE872E00E941B200C
:10226000809176058A3030F4888199816EE172E040
:102270000E941B206091760569C06FE872E00E94A1
:102280001B208881998160E041E00E943A196091A9
:10229000A3047091A404888199810E941B206091FD
:1022A00070057091710516C06DE972E00E941B20E7
:1022B0008881998160E041E00E943A196091A5040B
:1022C0007091A604888199810E941B2060917205FB
:1022D00070917305888199814AE050E00E94F81F4F
:1022E000DFC16EEA72E00E941B208881998160E064
:1022F00041E00E943A196091A7047091A804888176
:1023000099810E941B2040917B0550917C05609132
:102310007D0570917E05888199812AE030E00E94D8
:10232000E91FBEC16FEB72E00E941B20888199817A
:1023300060E041E00E943A196091A9047091AA04FA
:10234000888199810E941B2060917F0588819981F5
:102350004AE050E00E940920A3C10E9469198881C7
:1023600099816DEC72E00E941B208881998160E068
:1023700041E00E943A19A881B981ED91FC91119731
:102380000190F081E02DCD0160E019956091AB04E2
:102390007091AC0430C10E946919888199816BEDFC
:1023A00072E00E941B208881998160E041E00E94D8
:1023B0003A19A881B981ED91FC9111970190F081B2
:1023C000E02DCD0160E019956091AD047091AE04EF
:1023D00012C16BEE72E00E941B208881998160E03F
:1023E00041E00E943A19A881B981ED91FC911197C1
:1023F0000190F081E02DCD0160E019956091950488
:1024000070919604F8C06CEF72E08DC06CE073E0E0
:102410000E941B208881998160E041E00E943A1966
:10242000A881B981ED91FC9111970190F081E02D87
:10243000CD0160E019956091970470919804DBC01C
:1024400067E173E00E941B208881998160E041E090
:102450000E943A19A881B981ED91FC9111970190E0
:10246000F081E02DCD0160E019956091B10470918B
:10247000B204C1C064E273E056C062E373E00E943C
:102480001B208881998160E041E00E943A19A8816F
:10249000B981ED91FC9111970190F081E02DCD0172
:1024A00060E019956091B5047091B604A4C06FE323
:1024B00073E039C06DE473E00E941B20888199812C
:1024C00060E041E00E943A19A881B981ED91FC9148
:1024D00011970190F081E02DCD0160E01995609198
:1024E000B9047091BA0487C06AE573E01CC068E65D
:1024F00073E00E941B208881998160E041E00E9486
:102500003A19A881B981ED91FC9111970190F08160
:10251000E02DCD0160E019956091BD047091BE047D
:102520006AC067E773E00E941B20A881B981ED9122
:10253000FC9111970190F081E02DCD0162E0199599
:10254000888199816AE073E00E941B20A881B9818B
:10255000ED91FC9111970190F081E02DCD0163E0A8
:1025600019959EC065E873E00E941B2088819981BF
:1025700060E041E00E943A19A881B981ED91FC9197
:1025800011970190F081E02DCD0160E019956091E7
:10259000990470919A042FC061E372E00E941B209D
:1025A0008881998160E041E00E943A19888199818F
:1025B0006EE372E00E941B20888199816DE041E00A
:1025C0000E943A198881998160E973E016C060E041
:1025D00040E00E943A198881998164E973E00E9481
:1025E0001B208881998160E041E00E943A19609146
:1025F0009B0470919C04888199810E941B2050C08B
:1026000060E040E00E943A19888199816CE472E0B0
:102610000E941B208881998164E040E00E943A1961
:102620008881998165EA73E014C060E040E00E940F
:102630003A19888199816CE472E00E941B2088819C
:10264000998164E040E00E943A198881998166EBA3
:1026500073E00E941B208881998160E041E00E9424
:102660003A19888199816FE472E00E941B20888169
:10267000998164E041E00E943A198881998167E577
:1026800072E00E941B20CE016A890E942B0FCE01AE
:102690006B890E94740E68897989CE010E94251089
:1026A000DF91CF910895FF920F931F93CF93DF9304
:1026B000EC018C819D8161E070E00E94C202182FC4
:1026C0008E819F8161E070E00E94C202112319F0A7
:1026D000882309F096C3EA81FB81E931F10508F00E
:1026E00090C3EE55FF4FEE0FFF1F0590F491E02DC4
:1026F00019948A859B8560E070E00E94C20288235D
:1027000019F022E030E07FC38885998560E070E0B1
:102710000E94C202882319F021E030E074C3112323
:1027200009F46FC355C3882309F0A7C2112309F028
:10273000CDC28A859B8561E070E00E94C202882339
:1027400009F45FC390C0112321F0CE016FE070E067
:1027500056C3882309F091C28885998561E070E0AD
:102760000E94C202882309F033C38A859B858BC2ED
:102770008C819D8161E070E00E94C202082F8E81F1
:102780009F8161E070E00E94C202182F88859985C0
:1027900061E070E00E94C2028A859B8561E070E082
:1027A0000E94C2028881998163E041E00E943A1947
:1027B0008881998161EC73E00E941B20FF24F394CF
:1027C00036C08885998561E070E00E94C202182FAA
:1027D0008A859B8561E070E00E94C202112359F056
:1027E0008881998163E041E00E943A19888199814A
:1027F00069EC73E00CC0882361F08881998163E003
:1028000041E00E943A198881998163ED73E00E944A
:102810001B208C819D8161E070E00E94C202082F24
:102820008E819F8161E070E00E94C202182F802F8C
:102830008F2590E01F25212F30E082239323892BC1
:1028400009F0BFCF002379F018C2112309F0D1C0DD
:10285000882309F012C28885998561E070E00E94A2
:10286000C202882321F0CE0162E070E0C8C28A85EE
:102870009B8561E070E00E94C202BCC2112321F07E
:10288000CE0161E170E0BBC2882309F003C28A85F2
:102890009B8561E070E00E94C202882309F4B1C206
:1028A00010C1112321F0CE0163E170E0A8C288239A
:1028B00009F0F0C18885998561E070E00E94C2024C
:1028C000882309F096C08A859B8527C0112321F0B3
:1028D000CE0165E170E093C2882309F0DBC18885F1
:1028E000998561E070E00E94C202882309F0E9C086
:1028F0008A859B8561E070E00E94C202882309F40A
:1029000080C2AFC1112321F0CE0167E170E077C230
:10291000882309F0BFC18885998561E070E00E9435
:10292000C202882309F46DC234C18E819F8161E0A7
:1029300070E00E94C202082F8885998561E070E0EE
:102940000E94C2028A859B8561E070E00E94C202FB
:102950008881998163E041E00E943A1988819981D8
:1029600069EC73E00E941B2010E03DC088859985CA
:1029700061E070E00E94C202082F8A859B8561E0B9
:1029800070E00E94C2021123A1F0002329F181E12D
:1029900060E00E94F0238881998163E041E00E9419
:1029A0003A198881998169EC73E00E941B2010E03C
:1029B00013C0882389F081E161E00E94F0238881BF
:1029C000998163E041E00E943A198881998163ED21
:1029D00073E00E941B2011E08E819F8161E070E016
:1029E0000E94C202082F002309F281E160E00E94E8
:1029F000F023CE0160E170E002C28E819F8161E030
:102A000070E00E94C202082F8885998561E070E01D
:102A10000E94C2028A859B8561E070E00E94C2022A
:102A20008881998164E041E00E943A198881998106
:102A30006DED73E00E941B2010E03DC088859985F4
:102A400061E070E00E94C202082F8A859B8561E0E8
:102A500070E00E94C2021123A1F0002329F182E359
:102A600061E00E94F0238881998164E041E00E9446
:102A70003A19888199816DED73E00E941B2010E066
:102A800013C0882389F082E360E00E94F0238881EC
:102A9000998164E041E00E943A198881998165EE4C
:102AA00073E00E941B2011E08E819F8161E070E045
:102AB0000E94C202082F002309F282E361E00E9413
:102AC000F023CE0162E170E09AC18E819F8161E0C6
:102AD00070E00E94C202082F8885998561E070E04D
:102AE0000E94C2028A859B8561E070E00E94C2025A
:102AF0008881998163E041E00E943A198881998137
:102B00006DEE73E00E941B2010E03DC08885998522
:102B100061E070E00E94C202082F8A859B8561E017
:102B200070E00E94C2021123A1F0002329F180E38A
:102B300061E00E94F0238881998163E041E00E9476
:102B40003A19888199816DEE73E00E941B2010E094
:102B500013C0882389F080E360E00E94F02388811D
:102B6000998163E041E00E943A198881998168EF78
:102B700073E00E941B2011E08E819F8161E070E074
:102B80000E94C202082F002309F280E361E00E9444
:102B9000F023CE0164E170E032C18E819F8161E05B
:102BA00070E00E94C202082F8885998561E070E07C
:102BB0000E94C2028A859B8561E070E00E94C20289
:102BC0008881998162E041E00E943A198881998167
:102BD00063E074E00E941B2010E03DC08885998569
:102BE00061E070E00E94C202082F8A859B8561E047
:102BF00070E00E94C2021123A1F0002329F18EE2AD
:102C000061E00E94F0238881998162E041E00E94A6
:102C10003A198881998163E074E00E941B2010E0DA
:102C200013C0882389F08EE260E00E94F02388813F
:102C3000998162E041E00E943A198881998160E1BE
:102C400074E00E941B2011E08E819F8161E070E0A2
:102C50000E94C202082F002309F28EE261E00E9466
:102C6000F023CE0166E170E0CAC0112321F0CE014D
:102C700068E170E0C4C0882321F0CE0160E070E01C
:102C8000BEC08885998561E070E00E94C2028823F9
:102C900009F4B7C0CE0163E070E0B1C0882309F049
:102CA00097C08A859B8561E070E00E94C2028823FC
:102CB00009F4A7C024C0882309F08AC088859985B3
:102CC00061E070E00E94C202882321F0CE0168E03A
:102CD00070E095C08A859B8561E070E00E94C20229
:102CE000882309F48EC024C0882309F071C0888528
:102CF000998561E070E00E94C202882321F0CE0134
:102D000069E070E07CC08A859B8561E070E00E948C
:102D1000C202882309F475C024C0882309F058C072
:102D20008885998561E070E00E94C202882321F0C5
:102D3000CE016AE070E063C08A859B8561E070E047
:102D40000E94C202882309F45CC026C0882309F0CF
:102D50003FC08885998561E070E00E94C2028823A7
:102D600021F0CE016BE070E04AC08A859B8536C0B9
:102D7000112341F0CE0161E070E00E947B1026E05B
:102D800030E041C0882321F58885998561E070E0B5
:102D90000E94C202882321F0CE016CE070E02FC0B7
:102DA0008A859B8561E070E00E94C202882349F118
:102DB000CE016EE070E023C0112341F0CE0161E04E
:102DC00070E00E947B1027E030E01DC0882321F0D6
:102DD000CE0161E070E013C08885998561E070E004
:102DE0000E94C202882369F0CE016DE070E007C046
:102DF000112311F4882329F0CE0164E070E00E94D1
:102E00007B1020E030E0C901DF91CF911F910F913D
:102E1000FF9008958F929F92AF92BF92CF92DF92D0
:102E2000EF92FF920F931F935C0185E190E00E9467
:102E30004422182FF92E68E049E024E005E0A6E0DE
:102E4000EA2EF7E0CF2E0E94271AF5011083F182B7
:102E5000812F9F2D60E142E020E00E947119F50171
:102E6000808191810E946919F5018081918160E0E2
:102E700044EC54E00E940819F5018081918161E0E1
:102E80004CEC54E00E940819F5018081918162E0C8
:102E900044ED54E00E940819F5018081918163E0BE
:102EA0004CED54E00E940819F5018081918164E0A5
:102EB00044EE54E00E940819F5018081918165E09B
:102EC0004CEE54E00E9408198FE190E00E944422E9
:102ED000982E892E6DE174E043E250E020E00EE58B
:102EE00011E0E4EFEE2EE1E0FE2E32E3C32ED12C12
:102EF0000E941503F501948285828FE190E00E9483
:102F00004422982E892E64E274E045E250E020E0ED
:102F10000E941503F501968287828FE190E00E945E
:102F20004422982E892E6BE274E049E250E020E0C2
:102F30000AEF10E00E941503F501928683868FE167
:102F400090E00E944422982E892E60E374E047E2CC
:102F500050E020E00E941503F501908681868FE104
:102F600090E00E944422982E892E63E374E041E2AF
:102F700050E020E004EF11E0EE24FF24CC24DD2417
:102F80000E941503F50194868586128A138A83E0D0
:102F900090E0958B848B108E8FEF93E0918B808BDC
:102FA0001F910F91FF90EF90DF90CF90BF90AF9067
:102FB0009F908F900895FC011082118212821382DB
:102FC0000895CF92DF92EF92FF920F931F938C019F
:102FD0000E948F226B017C01F801608171818281E6
:102FE0009381C616D706E806F90658F49B01AC0192
:102FF00020953095409550952C0D3D1D4E1D5F1D23
:1030000006C0A7019601261B370B480B590BB901C7
:10301000CA011F910F91FF90EF90DF90CF9008951C
:103020000F931F938C010E948F229B01AC01F8012A
:10303000608171818281938126173707480759077C
:1030400048F46095709580959095620F731F841F6A
:10305000951F06C0261B370B480B590BCA01B90137
:1030600028EE33E040E050E00E948624B901CA0116
:103070001F910F9108950F931F938C010E948F222F
:10308000F80160837183828393831F910F91089568
:103090000F931F938C01FC01868160E00E94F02356
:1030A00081E090E00E949D22F801868161E00E940B
:1030B000F02381E090E00E949D22F801868160E08B
:1030C0000E94F02384E690E00E949D221F910F91C0
:1030D0000895CF92DF92EF92FF920F931F93CF93B9
:1030E000DF93D82EC92E282F392FC9018C01C0E0BB
:1030F000D0E0E62EFF24F801878161E00E943D23A5
:10310000B7010C2E02C0759567950A94E2F76170BD
:10311000F80187810E94F02321960F5F1F4FC8306E
:10312000D10549F78D2D9C2D0E944818DF91CF9134
:103130001F910F91FF90EF90DF90CF900895CF9265
:10314000DF92EF92FF920F931F93CF93DF93D82ECE
:10315000C92E282F392FC9018C01C0E0D0E0E62EFE
:10316000FF24F801878161E00E943D23B7010C2E06
:1031700002C0759567950A94E2F76170F80187813E
:103180000E94F02321960F5F1F4FC430D10549F7ED
:103190008D2D9C2D0E944818DF91CF911F910F918A
:1031A000FF90EF90DF90CF9008951F93CF93DF9320
:1031B000EC01162F8C81642F0E94F0238D818F3FAC
:1031C00019F060E00E94F0238F8584FF05C0CE01D6
:1031D000612F0E9469180EC0612F70E084E0759520
:1031E00067958A95E1F7CE010E949F18CE01612F65
:1031F0000E949F18DF91CF911F91089541E00E9496
:10320000D51881E090E0089540E00E94D518089517
:10321000EF92FF920F931F93CF93DF938C017A016C
:103220006770660F660F660F60640E940419C0E045
:10323000D0E0D801ED91FC91D701AC0FBD1F0190FA
:10324000F081E02DC8016C9119952196C830D10507
:1032500081F7DF91CF911F910F91FF90EF9008952B
:10326000FC016089862F8460808B6C60CF010E9496
:1032700004190895DF93CF93CDB7DEB728970FB623
:10328000F894DEBF0FBECDBF9C01FE013196ACEFBE
:10329000B4E088E00D9001928150E1F7F901838953
:1032A000481710F0482F4150E42FF0E0EE0FFF1FB9
:1032B000EC0FFD1F8181680F6068C9010E9404192D
:1032C00028960FB6F894DEBF0FBECDBFCF91DF9129
:1032D000089561E00E94041980ED97E00E949D220C
:1032E0000895CF93DF93EC01423018F08F8588600A
:1032F0008F874B8B1C8A222329F0413019F48F854C
:1033000084608F8780E593EC0E949D228C8160E031
:103310000E94F0238E8160E00E94F0238D818F3F18
:1033200019F060E00E94F0236F8564FD1DC0CE019E
:1033300063E00E949F1884E991E10E949D22CE01E2
:1033400063E00E949F1884E991E10E949D22CE01D2
:1033500063E00E949F1886E990E00E949D22CE01C2
:1033600062E00E949F1816C06062CE010E9404199C
:1033700084E991E10E949D226F856062CE010E94E6
:10338000041986E990E00E949D226F856062CE015B
:103390000E9404196F856062CE010E94041984E0C6
:1033A000888BCE010E943019CE010E94691982E0FB
:1033B000898BCE0166E00E940419DF91CF910895B8
:1033C0006F927F928F92AF92CF92EF920F931F9353
:1033D000DF93CF93CDB7DEB73C01162F842FF301D7
:1033E000448325830683E782C086A18682869E85E4
:1033F00093879F859487988995879989968761E0B7
:103400000E943D23F30185818F3F19F061E00E9406
:103410003D23F301868161E00E943D23112319F0D1
:10342000F301178603C080E1F3018787C30160E1E0
:1034300041E020E00E947119CF91DF911F910F911F
:10344000EF90CF90AF908F907F906F9008958F9274
:10345000AF92CF92EF920F931F93CF93DF93DC0144
:10346000362F542F722F102FAE2C8C2C13961C92AB
:103470001E92129788EF94E011969C938E9300D041
:103480000F92EDB7FEB73196CDB7DEB71982118234
:1034900012821382CD0161E0432F2FEF052FE72E1B
:1034A000C12E0E94E0190F900F900F900F90DF91A6
:1034B000CF911F910F91EF90CF90AF908F90089583
:1034C000F999FECF72BD61BDF89A80B50895F9995A
:1034D000FECF1FBA72BD61BD40BD0FB6F894FA9A17
:1034E000F99A0FBE089508951F920F920FB60F928A
:1034F0000BB60F9211242F933F934F938F939F936B
:10350000EF93FF938091C00082FD1DC04091C600E3
:103510002091C2053091C3052F5F3F4F2F7330704C
:103520008091C4059091C5052817390771F0E09185
:10353000C205F091C305EE57FA4F40833093C3059F
:103540002093C20502C08091C600FF91EF919F9128
:103550008F914F913F912F910F900BBE0F900FBE07
:103560000F901F90189508951F920F920FB60F920B
:103570000BB60F9211242F933F934F938F939F93EA
:10358000EF93FF938091C80082FD1DC04091CE0053
:1035900020914A0630914B062F5F3F4F2F733070BA
:1035A00080914C0690914D062817390771F0E091F3
:1035B0004A06F0914B06E65FF94F408330934B0685
:1035C00020934A0602C08091CE00FF91EF919F9117
:1035D0008F914F913F912F910F900BBE0F900FBE87
:1035E0000F901F90189508951F920F920FB60F928B
:1035F0000BB60F9211242F933F934F938F939F936A
:10360000EF93FF938091D00082FD1DC04091D600C2
:103610002091D2063091D3062F5F3F4F2F73307029
:103620008091D4069091D5062817390771F0E09162
:10363000D206F091D306EE56F94F40833093D3066D
:103640002093D20602C08091D600FF91EF919F9106
:103650008F914F913F912F910F900BBE0F900FBE06
:103660000F901F90189508951F920F920FB60F920A
:103670000BB60F9211242F933F934F938F939F93E9
:10368000EF93FF938091300182FD1DC04091360180
:1036900020915A0730915B072F5F3F4F2F73307097
:1036A00080915C0790915D072817390771F0E091D0
:1036B0005A07F0915B07E65EF84F408330935B0753
:1036C00020935A0702C080913601FF91EF919F919C
:1036D0008F914F913F912F910F900BBE0F900FBE86
:1036E0000F901F901895E091AE07F091AF07E05C46
:1036F000FF4F8191919120813181821B930B8F73B8
:103700009070892B11F00E94731AE091D007F0910C
:10371000D107E05CFF4F8191919120813181821B23
:10372000930B8F739070892B11F00E94B31AE09164
:10373000F207F091F307E05CFF4F819191912081B6
:103740003181821B930B8F739070892B11F00E9433
:10375000F31AE0911408F0911508E05CFF4F819195
:10376000919120813181821B930B8F739070892BF3
:1037700011F00E94331B08951F920F920FB60F9203
:103780000BB60F9211242F933F938F939F93EF9338
:10379000FF932091060630910706809108069091CC
:1037A00009062817390731F48091C1008F7D809375
:1037B000C10014C0E0910806F0910906EA53FA4FDF
:1037C0002081809108069091090601968F73907070
:1037D00090930906809308062093C600FF91EF910D
:1037E0009F918F913F912F910F900BBE0F900FBE25
:1037F0000F901F9018951F920F920FB60F920BB655
:103800000F9211242F933F938F939F93EF93FF93E6
:1038100020918E0630918F068091900690919106AE
:103820002817390731F48091C9008F7D8093C90032
:1038300014C0E0919006F0919106E25BF94F20816F
:10384000809190069091910601968F73907090935D
:103850009106809390062093CE00FF91EF919F9167
:103860008F913F912F910F900BBE0F900FBE0F9035
:103870001F9018951F920F920FB60F920BB60F92D2
:1038800011242F933F938F939F93EF93FF93209156
:10389000160730911707809118079091190728177C
:1038A000390731F48091D1008F7D8093D10014C00D
:1038B000E0911807F0911907EA52F94F20818091A1
:1038C00018079091190701968F73907090931907BC
:1038D000809318072093D600FF91EF919F918F91CD
:1038E0003F912F910F900BBE0F900FBE0F901F9026
:1038F00018951F920F920FB60F920BB60F921124CC
:103900002F933F938F939F93EF93FF9320919E0765
:1039100030919F078091A0079091A1072817390740
:1039200031F4809131018F7D8093310114C0E09199
:10393000A007F091A107E25AF84F20818091A007DB
:103940009091A10701968F7390709093A107809337
:10395000A00720933601FF91EF919F918F913F91A6
:103960002F910F900BBE0F900FBE0F901F901895C8
:10397000AF92BF92DF92EF92FF920F931F93CF937C
:10398000DF93EC017A018B01DD24403081EE580792
:1039900080E0680780E0780711F0DD24D39491E09F
:1039A000A92EB12CEC89FD89DD2069F0C50108A0A4
:1039B00002C0880F991F0A94E2F7808360E079E0E3
:1039C0008DE390E005C0108260E874E88EE190E03D
:1039D000A80197010E948624215030404040504069
:1039E000569547953795279580E12030380720F088
:1039F000DD2011F0DD24D6CFE889F9893083EA890A
:103A0000FB89208319A2EE89FF89408121E030E003
:103A1000C9010C8C02C0880F991F0A94E2F7482B49
:103A20004083EE89FF894081C9010D8C02C0880F57
:103A3000991F0A94E2F7482B4083EE89FF89408161
:103A4000C9010E8C02C0880F991F0A94E2F7482B17
:103A50004083EE89FF8980810F8C02C0220F331FC3
:103A60000A94E2F7209528232083DF91CF911F91BC
:103A70000F91FF90EF90DF90BF90AF900895DC0121
:103A80001C96ED91FC911D97E05CFF4F21913191C7
:103A900080819181281B390B2F733070C9010895E3
:103AA000DC011C96ED91FC911D97E05CFF4F20819D
:103AB0003181E054F040DF01AE5BBF4F8D919C91AE
:103AC00011972817390719F42FEF3FEF07C08D9191
:103AD0009C91E80FF91F8081282F30E0C9010895DB
:103AE000DC011C96ED91FC911D97E05CFF4F20815D
:103AF0003181E054F040DF01AE5BBF4F8D919C916E
:103B000011972817390719F42FEF3FEF10C08D9147
:103B10009C911197E80FF91F20818D919C9111972D
:103B200001968F73907011969C938E9330E0C9012B
:103B30000895DC0191968C919197882339F05496E1
:103B4000ED91FC915597808186FFF9CF91961C925B
:103B50000895CF93DF93EC01EE85FF85E05CFF4F86
:103B600020813181E054F0402F5F3F4F2F73307040
:103B7000DF01AE5BBF4F8D919C91119728173907DC
:103B8000D1F3E05CFF4F80819181E054F040E80F79
:103B9000F91F6083EE85FF85E05CFF4F3183208352
:103BA000EE89FF89208181E090E00F8C02C0880FB0
:103BB000991F0A94E2F7282B208381E089A3EC89DE
:103BC000FD8980818064808381E090E0DF91CF91E6
:103BD00008951F931092A5071092A40728EE33E0D2
:103BE00040E050E02093A6073093A7074093A80732
:103BF0005093A90768E075E07093A3076093A2074C
:103C000082E895E09093AF078093AE0786EC95E04D
:103C10009093B1078093B00785EC90E09093B30741
:103C20008093B20784EC90E09093B5078093B4073B
:103C300080EC90E09093B7078093B60781EC90E01A
:103C40009093B9078093B80782EC90E09093BB07FC
:103C50008093BA0786EC90E09093BD078093BC07F1
:103C600014E01093BE07B3E0B093BF07A7E0A093A2
:103C7000C007F5E0F093C107E1E0E093C2071092BE
:103C8000C7071092C6072093C8073093C90740930F
:103C9000CA075093CB077093C5076093C4078AE0A7
:103CA00096E09093D1078093D0078EE496E09093AE
:103CB000D3078093D2078DEC90E09093D507809343
:103CC000D4078CEC90E09093D7078093D60788ECCC
:103CD00090E09093D9078093D80789EC90E0909377
:103CE000DB078093DA078AEC90E09093DD078093FE
:103CF000DC078EEC90E09093DF078093DE07109353
:103D0000E007B093E107A093E207F093E307E093A5
:103D1000E4071092E9071092E8072093EA0730932E
:103D2000EB074093EC075093ED077093E707609320
:103D3000E60782E996E09093F3078093F20786ED19
:103D400096E09093F5078093F40785ED90E09093CB
:103D5000F7078093F60784ED90E09093F90780933E
:103D6000F80780ED90E09093FB078093FA0781EDD0
:103D700090E09093FD078093FC0782ED90E0909394
:103D8000FF078093FE0786ED90E0909301088093F3
:103D9000000810930208B0930308A0930408F0935E
:103DA0000508E093060810920B0810920A08209369
:103DB0000C0830930D0840930E0850930F08709331
:103DC0000908609308088AE197E0909315088093AA
:103DD00014088EE597E0909317088093160885E302
:103DE00091E0909319088093180884E391E09093F0
:103DF0001B0880931A0880E391E090931D0880933C
:103E00001C0881E391E090931F0880931E0882E3D1
:103E100091E0909321088093200886E391E09093AD
:103E200023088093220810932408B0932508A093B8
:103E30002608F0932708E09328081F910895CF9251
:103E4000DF92EF92FF920F931F93CF93DF937C014A
:103E50006B018A01C0E0D0E00FC0D6016D916D0109
:103E6000D701ED91FC910190F081E02DC7011995EA
:103E7000C80FD91F015010400115110571F7CE016F
:103E8000DF91CF911F910F91FF90EF90DF90CF9036
:103E90000895EF92FF920F931F938C01DC01ED9137
:103EA000FC910190F081E02D6DE019957C01D80125
:103EB000ED91FC910190F081E02DC8016AE0199527
:103EC0009C012E0D3F1DC9011F910F91FF90EF9096
:103ED0000895CF93DF93EC016115710519F420E08B
:103EE00030E00FC0DB010D900020E9F71197A61B11
:103EF000B70BE881F9810280F381E02DAD011995BE
:103F00009C01C901DF91CF9108954F925F927F92FA
:103F10008F929F92AF92BF92CF92DF92EF92FF92D9
:103F20000F931F93DF93CF93CDB7DEB7A1970FB653
:103F3000F894DEBF0FBECDBF2C01742ECB01223012
:103F400008F42AE019A231E2C32ED12CCC0EDD1EDA
:103F5000822E9924AA24BB24672D752FA5019401D4
:103F60000E94862479018A01C801B701A501940144
:103F70000E945324472D461B0894C108D1084A309B
:103F800014F4405D01C0495CF6014083E114F10482
:103F90000105110521F07E2C5F2DC801DDCFC20186
:103FA000B6010E94691FA1960FB6F894DEBF0FBE3E
:103FB000CDBFCF91DF911F910F91FF90EF90DF90D8
:103FC000CF90BF90AF909F908F907F905F904F90D9
:103FD0000895DC012115310541F4ED91FC9101902A
:103FE000F081E02D642F199508950E94851F089592
:103FF000EF92FF920F931F939A017B0100E010E074
:10400000B801A7010E94E91F1F910F91FF90EF9047
:104010000895EF92FF920F931F939A01E62EFF24CB
:1040200000E010E0B801A7010E94E91F1F910F9165
:10403000FF90EF9008950E94691F0895EF92FF92FC
:104040000F931F937C010E94691F8C01C7010E947E
:10405000491F080F191FC8011F910F91FF90EF9082
:104060000895883008F078C0E82FF0E0EE0FFF1FC9
:10407000E65DF74F718360838330D9F0843030F48C
:10408000813009F444C0823060F439C0853051F188
:104090008530D8F0863009F446C0873009F05CC01E
:1040A0004FC0809169008C7F842B80936900E89ACF
:1040B000089580916900440F551F440F551F837F59
:1040C000842B80936900E99A08958091690074E0D7
:1040D000440F551F7A95E1F78F7C842B80936900FC
:1040E000EA9A08958091690066E0440F551F6A9529
:1040F000E1F78F73842B80936900EB9A0895809188
:104100006A008C7F842B80936A00EC9A08958091DA
:104110006A00440F551F440F551F837F842B8093E3
:104120006A00ED9A089580916A0024E0440F551FBB
:104130002A95E1F78F7C842B80936A00EE9A08958C
:1041400080916A0096E0440F551F9A95E1F78F73AE
:10415000842B80936A00EF9A08951F920F920FB6F6
:104160000F920BB60F9211242F933F934F935F93AF
:104170006F937F938F939F93AF93BF93EF93FF932F
:1041800080912E0890912F08892B29F0E0912E081C
:10419000F0912F081995FF91EF91BF91AF919F91E9
:1041A0008F917F916F915F914F913F912F910F90E0
:1041B0000BBE0F900FBE0F901F9018951F920F927D
:1041C0000FB60F920BB60F9211242F933F934F937C
:1041D0005F936F937F938F939F93AF93BF93EF936F
:1041E000FF938091300890913108892B29F0E0915C
:1041F0003008F09131081995FF91EF91BF91AF917F
:104200009F918F917F916F915F914F913F912F91EE
:104210000F900BBE0F900FBE0F901F9018951F921E
:104220000F920FB60F920BB60F9211242F933F935C
:104230004F935F936F937F938F939F93AF93BF93AE
:10424000EF93FF938091320890913308892B29F0E6
:10425000E0913208F09133081995FF91EF91BF91E9
:10426000AF919F918F917F916F915F914F913F910E
:104270002F910F900BBE0F900FBE0F901F901895AF
:104280001F920F920FB60F920BB60F9211242F931D
:104290003F934F935F936F937F938F939F93AF93CE
:1042A000BF93EF93FF938091340890913508892B49
:1042B00029F0E0913408F09135081995FF91EF91BC
:1042C000BF91AF919F918F917F916F915F914F912E
:1042D0003F912F910F900BBE0F900FBE0F901F902C
:1042E00018951F920F920FB60F920BB60F921124D2
:1042F0002F933F934F935F936F937F938F939F93EE
:10430000AF93BF93EF93FF9380912A0890912B086E
:10431000892B29F0E0912A08F0912B081995FF913B
:10432000EF91BF91AF919F918F917F916F915F912D
:104330004F913F912F910F900BBE0F900FBE0F909A
:104340001F9018951F920F920FB60F920BB60F92F7
:1043500011242F933F934F935F936F937F938F938A
:104360009F93AF93BF93EF93FF9380912C0890910D
:104370002D08892B29F0E0912C08F0912D08199532
:10438000FF91EF91BF91AF919F918F917F916F912D
:104390005F914F913F912F910F900BBE0F900FBEE9
:1043A0000F901F9018951F920F920FB60F920BB699
:1043B0000F9211242F933F934F935F936F937F93AB
:1043C0008F939F93AF93BF93EF93FF9380913608A2
:1043D00090913708892B29F0E0913608F091370841
:1043E0001995FF91EF91BF91AF919F918F917F911F
:1043F0006F915F914F913F912F910F900BBE0F9056
:104400000FBE0F901F9018951F920F920FB60F922C
:104410000BB60F9211242F933F934F935F936F939B
:104420007F938F939F93AF93BF93EF93FF9380916D
:10443000380890913908892B29F0E0913808F091DB
:1044400039081995FF91EF91BF91AF919F918F918D
:104450007F916F915F914F913F912F910F900BBE84
:104460000F900FBE0F901F901895CF93DF930E946F
:10447000A7220E94790DC3E7DBE10E945B0B209726
:10448000E1F30E94731BF9CF0E947E0108951F92F1
:104490000F920FB60F9211242F933F938F939F93F8
:1044A000AF93BF9380913E0890913F08A091400840
:1044B000B0914108309142080196A11DB11D232FF2
:1044C0002D5F2D3720F02D570196A11DB11D209392
:1044D000420880933E0890933F08A0934008B09311
:1044E000410880913A0890913B08A0913C08B09116
:1044F0003D080196A11DB11D80933A0890933B0899
:10450000A0933C08B0933D08BF91AF919F918F91CC
:104510003F912F910F900FBE0F901F9018958FB75E
:10452000F89420913E0830913F0840914008509106
:1045300041088FBFB901CA010895019739F0880F6A
:10454000991F880F991F02970197F1F708957894A2
:1045500084B5826084BD84B5816084BD85B5826088
:1045600085BD85B5816085BDEEE6F0E08081816026
:104570008083E1E8F0E01082808182608083808126
:1045800081608083E0E8F0E0808181608083E1EBFE
:10459000F0E0808184608083E0EBF0E080818160E6
:1045A0008083E1E9F0E080818260808380818160A6
:1045B0008083E0E9F0E0808181608083E1EAF0E0DF
:1045C000808182608083808181608083E0EAF0E086
:1045D000808181608083E1E2F1E08081826080837C
:1045E000808181608083E0E2F1E08081816080836E
:1045F000EAE7F0E08081846080838081826080834C
:104600008081816080838081806880831092C10076
:104610000895382F863308F0365320917B00832F7E
:1046200086958695869590E08170907043E0880F1E
:10463000991F4A95E1F7277F282B20937B0037703D
:104640008091C3048295880F880F807C832B809390
:104650007C0080917A00806480937A0080917A0057
:1046600086FDFCCF2091780040917900942F80E066
:1046700030E0282B392BC9010895CF93DF93482FC1
:1046800050E0CA01865F9D4FFC0134914C535E4F50
:10469000FA018491882369F190E0880F991FFC0149
:1046A000EA58FE4FA591B491FC01E057FE4FC59129
:1046B000D491662351F42FB7F8948C91932F909551
:1046C00089238C93888189230BC0623061F42FB7D2
:1046D000F8948C91932F909589238C938881832BC8
:1046E00088832FBF06C09FB7F8948C91832B8C933F
:1046F0009FBFDF91CF910895893009F449C08A3076
:10470000A0F4843051F1853040F4823079F1833067
:1047100000F5813009F063C026C0873079F1883018
:1047200098F5863009F05BC025C08D3009F442C091
:104730008E3028F48B30B1F18C30C0F52DC0803133
:1047400009F442C0813109F445C08F3009F047C0F7
:1047500037C0809180008F7703C0809180008F7D6B
:1047600080938000089584B58F7702C084B58F7DD3
:1047700084BD08958091B0008F7703C08091B00010
:104780008F7D8093B0000895809190008F7707C04F
:10479000809190008F7D03C080919000877F8093EF
:1047A000900008958091A0008F7707C08091A000AD
:1047B0008F7D03C08091A000877F8093A000089523
:1047C000809120018F7703C0809120018F7D80939D
:1047D0002001089580912001877F80932001089512
:1047E000FF920F931F93F62E482F50E0CA01805B73
:1047F0009D4FFC012491CA01865F9D4FFC011491DD
:104800004C535E4FFA0104910023C9F0222319F0A2
:10481000822F0E947C23E02FF0E0EE0FFF1FE05775
:10482000FE4FA591B4919FB7F894FF2021F48C918D
:104830001095812302C08C91812B8C939FBF1F9177
:104840000F91FF9008950F931F93482F50E0CA01D6
:10485000805B9D4FFC012491CA01865F9D4FFC0146
:1048600004914C535E4FFA011491112319F420E086
:1048700030E015C0222319F0822F0E947C23812F63
:1048800090E0880F991F86559E4FFC01A591B49129
:104890008C9120E030E0802311F021E030E0C9016C
:1048A0001F910F910895629FD001739FF001829F25
:1048B000E00DF11D649FE00DF11D929FF00D839FAF
:1048C000F00D749FF00D659FF00D9927729FB00D4C
:1048D000E11DF91F639FB00DE11DF91FBD01CF015F
:1048E00011240895AA1BBB1B51E107C0AA1FBB1FBF
:1048F000A617B70710F0A61BB70B881F991F5A956C
:10490000A9F780959095BC01CD010895A1E21A2EDA
:10491000AA1BBB1BFD010DC0AA1FBB1FEE1FFF1F63
:10492000A217B307E407F50720F0A21BB30BE40BB3
:10493000F50B661F771F881F991F1A9469F76095FA
:104940007095809590959B01AC01BD01CF010895B4
:10495000EE0FFF1F0590F491E02D199412E0CCE9C1
:10496000D2E004C0FE010E94AA242296CE39D107CB
:06497000C9F7F894FFCF27
:104976000A54484320536574757020436F6D706CFC
:1049860065746500302E66002A0020003100300074
:10499600454E4100435554004F4B004B46002D2DCC
:1049A60000526567652D6F2D6D6174696300506CEB
:1049B60061736D6120492F463A205600543A0041F2
:1049C6003A005447543A004E4F573A00464646007E
:1049D60020200020202000312E205469702055739D
:1049E6006167652E2E2E00312E31205573652054B9
:1049F600696D6500483A4D4D3A535320003A0031EF
:104A06002E322050696C6F742041726300312E3350
:104A160020506C756E676520436F756E7400312E7D
:104A26003420466C6173682057726974657300316F
:104A36002E352043757220426C6F636B00312E3623
:104A46002052657365742055736500312E372052E8
:104A56006573657420466C61736800322E20446568
:104A66006661756C74204D6F64652E00322E3120A0
:104A7600536574204D6F64653A002F00332E205421
:104A86006573742E2E2E00332E3120546F72636898
:104A9600204F6E00546F67676C6520547263683AE6
:104AA6002000332E322041726320476F6F6400541A
:104AB6006F67676C65204172633A202000332E339E
:104AC60020546F72636820557000546F67676C6579
:104AD60020542D55503A2000332E3420546F7263E3
:104AE6006820446F776E00546F67676C6520542D9D
:104AF600444E3A2000342E20496E666F2E2E2E002C
:104B0600302E66002D2D2D2D44495341424C4544EF
:104B16002D2D2D2D004259504153532D2D2D2D2D28
:104B26002D2D2D2D2D002A2A4372756973652A2A8B
:104B36000063757272656E7400546F726368206FDD
:104B4600666600546F726368206F6E200041726360
:104B5600206F666600417263206F6E2000544843E2
:104B6600205550206F666600544843205550206FEC
:104B76006E200054484320444F574E206F6666000F
:104B860054484320444F574E206F6E200053656CA7
:104B96006563740043616E63656C00446F776E00F5
:104BA6005570004D6F6465000020666F7220696E57
:104BB600666F0020746F20736574206D6F646500E6
:104BC60020746F2074657374002D2D2D2D2D2D2DC1
:104BD6002D2D2D2D2D2D2D2D2D00546F74616C3AFC
:104BE6002000426C6F636B20496E205573653A2036
:104BF6000020746F207265736574002000470800FA
:104C0600003804390443045004390459043804387C
:104C16000438046A046A046A04720481048104384C
:104C2600045004380450043804500438045004383E
:104C3600043804011F1F1E1D0B171F1F1F0E151BF7
:104C4600150E1F1F1F1B110A1B1B1B1B1B1B1B1BD0
:104C56000A111B1F040E15040404040004040404B2
:104C6600150E040000000000FE181F1F0000400083
:104C76001400540000000000A91D1F1F3F1D701DD9
:044C8600501D991D07
:00000001FF
